:020000020000FC
:1000000009C018951895189518951895189518956C
:10001000189518950FE90DBFB89AC098B99AC1986C
:10002000BA9AC298BB9AC398BC9AC4984F934F93FC
:1000300078940F931F933F930AE01FEF3FEF3A9599
:10004000F1F71A95D9F70A95C1F73F911F910F91D2
:10005000662740E1671708F402C0C09802C0C09A42
:1000600000C0681708F402C0C19802C0C19A00C05D
:10007000691708F402C0C29802C0C29A00C06A1789
:1000800008F402C0C39802C0C39A00C06B1708F4FA
:1000900002C0C49802C0C49A00C063956F3FE1F5E6
:1000A00040FD01C004C07E3F31F0739505C0703043
:1000B00019F07A9501C04E7F41FD01C004C08E3F0A
:1000C00031F0839505C0803019F08A9501C04D7FCD
:1000D00042FD01C004C09E3F31F0939505C09030B1
:1000E00019F09A9501C04B7F43FD01C004C0AE3F9B
:1000F00031F0A39505C0A03019F0AA9501C0477F43
:1001000044FD01C004C0BE3F31F0B39505C0B0301E
:0A01100019F0BA9501C04F7E9DCF93
:00000001FF
