:020000020000FC
:1000000009C018951895189518951895189518956C
:10001000189518950FE90DBFB89AC098B99AC1986C
:10002000BA9AC298BB9AC398BC9AC4984F934F93FC
:100030007894662744270FEF0093600000936200D6
:1000400000936400009366000093680001E0009351
:10005000610002E00093630000E00093650004E0AB
:100060000093670003E000936900671708F402C07B
:10007000C09802C0C09A00C0681708F402C0C198B6
:1000800002C0C19A00C0691708F402C0C29802C039
:10009000C29A00C06A1708F402C0C39802C0C39A8B
:1000A00000C06B1708F402C0C49802C0C49A00C014
:1000B00063956F3FE9F550FD01C004C07E3F31F00C
:1000C000739505C0703019F07A9501C05E7F51FDBF
:1000D00001C004C08E3F31F0839505C0803019F017
:1000E0008A9501C05D7F52FD01C004C09E3F31F082
:1000F000939505C0903019F09A9501C05B7F53FD30
:1001000001C004C0AE3F31F0A39505C0A03019F086
:10011000AA9501C0577F54FD01C004C0BE3F31F015
:10012000B39505C0B03019F0BA9501C05F7E01C02B
:100130009CCF40FD15C0009160001091610000301F
:1001400021F00A95009360000BC0103039F01A9529
:100150000FEF009360001093610002C04160516096
:1001600041FD15C00091620010916300003021F044
:100170000A95009362000BC0103039F01A950FEF0A
:10018000009362001093630002C04260526042FD1F
:1001900015C00091640010916500003021F00A95AF
:1001A000009364000BC0103039F01A950FEF0093E4
:1001B00064001093650002C04460546043FD15C0A4
:1001C0000091660010916700003021F00A950093BD
:1001D00066000BC0103039F01A950FEF00936600DF
:1001E0001093670002C04860586044FD15C000913C
:1001F000680010916900003021F00A9500936800B2
:100200000BC0103039F01A950FEF0093680010936F
:0A021000690002C04061506128CF70
:00000001FF
