:020000020000FC
:100000000FC01895189506C018951895189518954D
:10001000189518950F931F93C7951F910F911895D9
:100020000FE90DBF0F9302E009BF0F910F9301E09D
:1000300003BF0F91B89AC098B99AC198BA9AC2985A
:10004000BB9AC398BC9AC4984F934F9378946627F1
:1000500055274427C5E00FEF0093600008E70093A1
:10006000620008EC0093640008E1009366000AEF68
:100070000093680001E00093610002E000936300D8
:1000800000E00093650004E00093670005E0009342
:100090006900671708F402C0C09802C0C09A00C087
:1000A000681708F402C0C19802C0C19A00C069175D
:1000B00008F402C0C29802C0C29A00C06A1708F4CD
:1000C00002C0C39802C0C39A00C06B1708F402C0F4
:1000D000C49802C0C49A00C063956F3F09F401C080
:1000E0006FC050FD01C004C07E3F79F073950FC012
:1000F000703069F07A95703051F44E7F1C2F177074
:10010000C09360001093610002C05E7F00C051FD8B
:1001100001C004C08E3F79F083950FC0803069F034
:100120008A95803051F44D7F1C2F1770C093620068
:100130001093630002C05D7F00C052FD01C004C087
:100140009E3F79F093950FC0903069F09A9590306A
:1001500051F44B7F1C2F1770C093640010936500FF
:1001600002C05B7F00C053FD01C004C0AE3F79F008
:10017000A3950FC0A03069F0AA95A03051F4477F35
:100180001C2F1770C09366001093670002C0577F42
:1001900000C054FD01C004C0BE3F79F0B3950FC04C
:1001A000B03069F0BA95B03051F44F7E1C2F177003
:1001B000C09368001093690002C05F7E00C001C058
:1001C00068CF40FD15C000916000109161000030C3
:1001D00021F00A95009360000BC0103039F01A9599
:1001E0000FEF009360001093610002C04160516006
:1001F00041FD15C00091620010916300003021F0B4
:100200000A95009362000BC0103039F01A950FEF79
:10021000009362001093630002C04260526042FD8E
:1002200015C00091640010916500003021F00A951E
:10023000009364000BC0103039F01A950FEF009353
:1002400064001093650002C04460546043FD15C013
:100250000091660010916700003021F00A9500932C
:1002600066000BC0103039F01A950FEF009366004E
:100270001093670002C04860586044FD15C00091AB
:10028000680010916900003021F00A950093680021
:100290000BC0103039F01A950FEF009368001093DF
:0A02A000690002C040615061F4CE15
:00000001FF
